:0400000080312628FD
:100008007E1480318B1E09280A2812280B1D0D2802
:100018000E2812288231DF22803124280B1F152850
:10002800162824282100131E1A281B2824282000FB
:10003800131E1F28202824288331312380312428A7
:100048007E10090080312828F001F101F201F30146
:10005800F401F5012030840000308500263083311A
:100068007E2380317E1020008231912A0034D034E2
:100078003134E1346234B23453348334C434143404
:10008800F5342534A6347634973447341934C934D2
:100098002834F8347B34AB344A349A34DD340D34A4
:1000A800EC343C34BF346F348E345E343234E23452
:1000B8000334D334503480346134B134F6342634C4
:1000C800C734173494344434A53475342B34FB3492
:1000D8001A34CA34493499347834A834EF343F3464
:1000E800DE340E348D345D34BC346C346434B43452
:1000F800553485340634D6343734E734A034703474
:1001080091344134C2341234F33423347D34AD3461
:100118004C349C341F34CF342E34FE34B934693413
:1001280088345834DB340B34EA343A345634863461
:100138006734B7343434E4340534D5349234423433
:10014800A3347334F0342034C13411344F349F3421
:100158007E34AE342D34FD341C34CC348B345B34D3
:10016800BA346A34E9343934D8340834C8341834E1
:10017800F9342934AA347A349B344B340C34DC34C3
:100188003D34ED346E34BE345F348F34D1340134B1
:10019800E0343034B3346334823452341534C534E3
:1001A8002434F4347734A73446349634FA342A3471
:1001B800CB341B3498344834A93479343E34EE3483
:1001C8000F34DF345C348C346D34BD34E334333471
:1001D800D234023481345134B03460342734F734A3
:1001E8001634C634453495347434A434AC347C3471
:1001F8009D344D34CE341E34FF342F346834B83433
:10020800593489340A34DA343B34EB34B534653440
:1002180084345434D7340734E63436347134A13452
:10022800403490341334C3342234F2349E344E3480
:10023800AF347F34FC342C34CD341D345A348A34F2
:100248006B34BB343834E8340934D9348734573400
:10025800B6346634E5343534D43404344334933412
:100268007234A2342134F1341034C03404302600FE
:100278001306031D40294129B7297708F10076089C
:10028800F0000530930020003603031D4C294D294A
:10029800CE29B60128087002AA002908713BAB00D4
:1002A8002D08F9002C08F800F936F80CF936F80C86
:1002B800F936F80C7808B8002B08F9002A08F80075
:1002C800F936F80CF936F80CF936F80C7808B90054
:1002D80016303902031C71297229782922000D175A
:1002E8002000B301B30A7C2922000D132000B301BA
:1002F8003508031D802981298B293308031D852989
:100308008629B629B501B50AB401F501CE29330805
:10031800031D8F2990299D290130F800340A952959
:10032800F835890B94297808FF3AF9007908F5051A
:10033800A8290130F800340AA229F835890BA12927
:100348007808F9007908F5040130F8007808B4074E
:1003580008303402031CB129B229B629B501BA0103
:10036800BA0ACE29CE2905301306031DBC29BD299A
:10037800CE2977082000A9007608A80004302600B6
:100388009300700820002802AC007108293BAD00DA
:10039800B601B60A080020003A03031DD429D5295E
:1003A800212ABA01FE29C8307506031DDC29DD297A
:1003B800E82974083B3E86008701750881000130F2
:1003C800C6004608F407212AF401212A8B30750655
:1003D800031DEF29F029E829DD2974083B3E860032
:1003E8008701750881000130C6004608F407B2018C
:1003F800B20AE8297408003A0319D729013A0319FF
:10040800EA29033A0319DD29013A0319DD29073AD4
:100418000319DD29013A0319DD29033A0319DD29F6
:10042800013A0319DD290F3A0319DD29013A0319A5
:10043800DD29033A0319F129E829080020003008CA
:10044800031D272A282A292A6E2AA601A701731D17
:100458002E2A2F2A322A22008D16342A22008D12A3
:10046800F31D372A382A3A2A0D163B2A0D12731E15
:100478003E2A3F2A412A8D15422A8D11F31E452A0C
:10048800462A482A0D15492A0D112000AF1E4D2A6B
:100498004E2A512A22008D14532A22008D10200042
:1004A8002F1F572A582A5B2A22000D145D2A220082
:1004B8000D102000C70147083B3E860087018101D7
:1004C8000130C6004608C7070B304702031C6D2AD7
:1004D8006E2A5F2A08002000C800C901CA01882ABC
:1004E8004A084807C70047088600870101084906E7
:1004F8003A3E840080300318013E85000008C90098
:100508000130C7004708CA0746084A02031C8D2A5B
:100518008E2A742A49084C3A080083310B23823109
:100528001E302000C6000330C70083318423823187
:100538008B170B178131CF2182318231C72282314B
:100548008231222282318331402382319E2A8031B6
:100558002628220090018C018D018E01083021008F
:100568009000F6308C0080308D00FD308E00230026
:100578008D0136308C00240090018D0121009513E7
:1005880022009D0108002000B0010830C6003D305F
:1005980082316F2282312000B100450831060319EB
:1005A800D62AD72AD82ADE2AB001B00A3D08F30095
:1005B8003E08AF0008000B117208200095000130BA
:1005C800A2070030A33D003023020A30031922029B
:1005D800031CEF2AF02AF62A83315B23823120009C
:1005E800A201A301080021001508C039143895009C
:1005F8000630200095000630F2000B118B168E3065
:10060800C6000330C7008331842382310800823159
:10061800AD22833183316823833183318A23833147
:1006280083317423833183314E2383318231F7221E
:100638008331080001302000A6070030A73D0030B4
:100648002702C83003192602031C2B2B2C2B302B16
:10065800A601A701AE01AE0A080020001312260069
:100668001108FA001208FB007B08F7007A08F60068
:1006780081313A218331080020002E03031D452BC8
:10068800462B4D2BAE0122008D160D128D150D1126
:100698008D10080010302000990097019601111064
:1006A8001708A1001608A0000130980008002000D3
:1006B800240825040319612B622B672B25088A005F
:1006C80024080A008331080070302100990098013D
:1006D8002200960121001A1F722B732B6E2B080023
:1006E8000530260093009201910120001312210089
:1006F80013160800640080010131890B7F2B003438
:1007080020004708A5004608A4000800163021006C
:0607180097000800080034
:020000040001F9
:08000000FF3FFF3FFF3FFF3F00
:04000E00E43FFF1FAD
:00000001FF
