:0400000080312628FD
:100008007E1480318B1E09280A2812280B1D0D2802
:100018000E28122883314923803124280B1F1528E4
:10002800162824282100131E1A281B2824282000FB
:10003800131E1F2820282428833197238031242841
:100048007E10090080312828A53084008230850080
:10005800A03086000030870040308331D6238031BD
:10006800F001F101F201F301F401F50120308400FF
:100078000030850026308331DC2380317E1020005B
:100088008331302B0034D0343134E1346234B2342B
:1000980053348334C4341434F5342534A6347634D4
:1000A800973447341934C9342834F8347B34AB34A2
:1000B8004A349A34DD340D34EC343C34BF346F3474
:1000C8008E345E343234E2340334D33450348034E2
:1000D8006134B134F6342634C73417349434443494
:1000E800A53475342B34FB341A34CA344934993462
:1000F8007834A834EF343F34DE340E348D345D3434
:10010800BC346C346434B434553485340634D63451
:100118003734E734A034703491344134C234123463
:10012800F33423347D34AD344C349C341F34CF3411
:100138002E34FE34B934693488345834DB340B3403
:10014800EA343A34563486346734B7343434E434D1
:100158000534D53492344234A3347334F034203423
:10016800C13411344F349F347E34AE342D34FD34D1
:100178001C34CC348B345B34BA346A34E9343934C3
:10018800D8340834C8341834F9342934AA347A34C1
:100198009B344B340C34DC343D34ED346E34BE3493
:1001A8005F348F34D1340134E0343034B3346334C1
:1001B800823452341534C5342434F4347734A734B3
:1001C80046349634FA342A34CB341B3498344834C1
:1001D800A93479343E34EE340F34DF345C348C3453
:1001E8006D34BD34E3343334D23402348134513481
:1001F800B03460342734F7341634C6344534953473
:100208007434A434AC347C349D344D34CE341E3430
:10021800FF342F346834B834593489340A34DA3422
:100228003B34EB34B534653484345434D734073430
:10023800E63436347134A134403490341334C33442
:100248002234F2349E344E34AF347F34FC342C34B0
:10025800CD341D345A348A346B34BB343834E834E2
:100268000934D93487345734B6346634E5343534F0
:10027800D4340434433493347234A2342134F13402
:100288001034C034043026001306031D4C294D29B0
:10029800C2297708F3007608F200053093002000A1
:1002A8003903031D58295929D729B9017008720241
:1002B800B1007108733BB2003408F9003308F80044
:1002C800F936F80CF936F80CF936F80C7808BB0052
:1002D8003208F9003108F800F936F80CF936F80C4C
:1002E800F936F80C7808BC001A303C02031C7D294A
:1002F8007E29842922008D172000B601B60A882994
:1003080022008D132000B6013808031D8C298D2981
:1003180096293608031D91299229C129B801B80ADE
:10032800B701D7293608031D9A299B29A829013026
:10033800F800370AA029F835890B9F297808FF3A71
:10034800F9007908F505B3290130F800370AAD2915
:10035800F835890BAC297808F9007908F5040130DB
:10036800F8007808B70708303702031CBC29BD29F4
:10037800C129B8010130C500D729D729053013068E
:10038800031DC729C829D7297708F1007608F00086
:1003980004309300720870022000B3007308713BA8
:1003A800B400B901B90A080020004503031DDD297E
:1003B800DE29482AC501252AC8307506031DE52906
:1003C800E629EB29C301C30A7508A000482AC3011E
:1003D800482A8B307506031DF229F329EB29750885
:1003E800A1000230C300482A7508A2000330C300E8
:1003F800482A7508A3000430C300482A7508A400D9
:100408000530C300482A7508A5000630C300482AED
:100418007508A6000730C300482A7508A7000830E9
:10042800C300482A7508A8000930C300482A75087F
:10043800A9000A30C300482A7508AA00C401C40AE2
:10044800EB294308003A0319E029013A0319ED2979
:10045800033A0319F829013A0319FD29073A031940
:10046800022A013A0319072A033A03190C2A013A06
:100478000319112A0F3A0319162A013A03191B2ADC
:10048800033A0319202AEB29080020004108A03E5E
:10049800860087010108C7002A0847060319552A5C
:1004A800562A572AA42AC001C11E5B2A5C2A5F2A41
:1004B80022008D16612A22008D122000411E652A15
:1004C800662A692A22000D166B2A22000D122000C6
:1004D800C11D6F2A702A732A22008D15752A2200E1
:1004E8008D112000411D792A7A2A7D2A22000D15B6
:1004F8007F2A22000D112000C11C832A842A872A02
:1005080022008D14892A22008D102000411C8D2A7A
:100518008E2A912A22000D14932A22000D10200001
:10052800C8014808203E8600870181010130C600C5
:100538004608C8070B304802031CA32AA42A952A98
:1005480008004C349F34ED343E346634B534C73437
:10055800143459348A34F8342B347334A034D234F4
:1005680001348E345D342F34FC34A43477340534AC
:10057800D6349B3448343A34E934B13462341034D4
:10058800C3342D34FE348C345F340734D434A63469
:1005980075343834EB3499344A341234C134B334B2
:1005A8006034EF343C344E349D34C53416346434EE
:1005B800B734FA3429345B348834D0340334713492
:1005C800A23420002208F4002308C200C101741DCF
:1005D800EE2AEF2AF12AC116F22AC112F41DF52AD1
:1005E800F62AF82A4116F92A4112741EFC2AFD2A15
:1005F800FF2AC115002BC111F41E032B042B062B57
:100608004115072B4111C21E0A2B0B2B0D2BC114B0
:100618000E2BC110421F112B122B142B4114152B1A
:1006280041100800220090018C0140308D008E019D
:10063800083021009000F6308C008D01FD308E00CE
:1006480023008D0136308C00240090018D0121009B
:10065800951322009D01080083317523833188306A
:100668002000C6000330C7008331E22383318B1793
:100678000B178131D82183318231E52283318231D0
:10068800492283313D2B803126280B112000350863
:1006980095000130AD070030AE3D00302E020A3023
:1006A80003192D02031C592B5A2B602B8331B323BA
:1006B80083312000AD01AE01080021001508C039C2
:1006C800143895000630200095000630B5000B114F
:1006D8008B16EC30C6000330C7008331E223833128
:1006E80008008331162383318331C023833183315A
:1006F800E82383318331CC2383318331A6238331AB
:1007080083316123833108000130F6007608200028
:10071800C007C8304002031C922B932B962BBE01B6
:10072800BE0AC00108002000131226001108FA00B2
:100738001208FB007B08F7007A08F6008131462191
:10074800833108001030200099009701960111109C
:100758001708AC001608AB0001309800080020000C
:100768002F0830040319B92BBA2BBF2B30088A0085
:100778002F080A0083310800703021009900980181
:100788002200960121001A1FCA2BCB2BC62B08006A
:1007980005302600930092019101200013122100D8
:1007A80013160800FE0012001E00FE0BD72B0034A3
:1007B800640080010131890BDD2B003420004708DB
:1007C800B0004608AF000800163021009700080066
:0207D800080017
:020000040001F9
:08000000FF3FFF3FFF3FFF3F00
:04000E00C43FFF1FCD
:00000001FF
