:020000040000FA
:0400000080312628FD
:100008007E1480318B1E09280A2812280B1D0D2802
:100018000E2812288231DE22803124280B1F152851
:10002800162824282100131E1A281B2824282000FB
:10003800131E1F282028242883313F238031242899
:100048007E10090080312828FD012030840000300E
:100058008500213083317E2380317E10200082315B
:10006800A82A0034D0343134E1346234B234533401
:100078008334C4341434F5342534A63476349734B0
:1000880047341934C9342834F8347B34AB344A340F
:100098009A34DD340D34EC343C34BF346F348E3450
:1000A8005E343234E2340334D3345034803461342F
:1000B800B134F6342634C734173494344434A53470
:1000C80075342B34FB341A34CA34493499347834AF
:1000D800A834EF343F34DE340E348D345D34BC3410
:1000E8006C346434B434553485340634D6343734F7
:1000F800E734A034703491344134C2341234F334C8
:1001080023347D34AD344C349C341F34CF342E34F6
:10011800FE34B934693488345834DB340B34EA3467
:100128003A34563486346734B7343434E4340534D6
:10013800D53492344234A3347334F0342034C13487
:1001480011344F349F347E34AE342D34FD341C3496
:10015800CC348B345B34BA346A34E9343934D83427
:100168000834C8341834F9342934AA347A349B341E
:100178004B340C34DC343D34ED346E34BE345F34EF
:100188008F34D1340134E0343034B33463348234BE
:1001980052341534C5342434F4347734A73446340F
:1001A8009634FA342A34CB341B3498344834A9347E
:1001B80079343E34EE340F34DF345C348C346D34AF
:1001C800BD34E3343334D234023481345134B0345E
:1001D80060342734F7341634C634453495347434CF
:1001E800A434AC347C349D344D34CE341E34FF34C6
:1001F8002F346834B834593489340A34DA343B3407
:10020800EB34B534653484345434D7340734E634A5
:1002180036347134A134403490341334C334223426
:10022800F2349E344E34AF347F34FC342C34CD3425
:100238001D345A348A346B34BB343834E8340934C6
:10024800D93487345734B6346634E5343534D43445
:100258000434433493347234A2342134F1341034E6
:10026800C034F801F601F701F901FA017108FA0042
:100278007008F90020002A08031D432944294F2942
:100288007A08A1007908A000053026009300200014
:10029800AA01AA0ABB2920087902F60021087A3B9C
:1002A800F7007708F3007608F200F336F20CF3361D
:1002B800F20CF336F20C7208F4007308F5000430FF
:1002C800260093002000AA0100307502153003199A
:1002D8007402031870297129762922000D17F80174
:1002E800F80A792922000D13F80120002C08031DB3
:1002F8007E297F2989297808031D83298429BB2918
:10030800AC01AC0AAB01FD01BB292C03031D8D29EF
:100318008E29AC297808031D9229932994299F29AD
:100328000130F2002B0A9929F235890B98297208B5
:10033800F3007308FD040130F2007208AB070830BF
:100348002B02031CA829A929BB290230AC00BB2910
:1003580002302C06031DB129B229BB297803031DDD
:10036800B629B729B929B401B40AAC01BB290800D8
:1003780020003408031DC129C229C3290F2AB4014A
:10038800EC29C8307D06031DCA29CB29D629320895
:10039800363E860087017D0881000130C100410892
:1003A800B2070F2AB2010F2A8B307D06031DDD2903
:1003B800DE29D629CB293208363E860087017D08FA
:1003C80081000130C1004108B207B301B30AD62940
:1003D8003208003A0319C529013A0319D829033A02
:1003E8000319CB29013A0319CB29073A0319CB2959
:1003F800013A0319CB29033A0319CB29013A031906
:10040800CB290F3A0319CB29013A0319CB29033A0F
:100418000319DF29D629080020003008031D152AF2
:10042800162A172A632A2F1D1A2A1B2A1E2A220077
:100438008D16202A22008D122000AF1D242A252A7D
:10044800282A22000D162A2A22000D1220002F1E0B
:100458002E2A2F2A322A22008D15342A22008D11A5
:100468002000AF1E382A392A3C2A22000D153E2AC0
:1004780022000D112000AE1E422A432A462A2200DD
:100488008D14482A22008D1020002E1F4C2A4D2A38
:10049800502A22000D14522A22000D102000C201F9
:1004A8004208363E8600870181010130C1004108BB
:1004B800C2070B304202031C622A632A542A08002E
:1004C80020003308031D692A6A2A6B2A852AB3018A
:1004D800B0010830C10038308231862282312000D4
:1004E800B1004008310603197A2A7B2A7C2A852A1A
:1004F800B001B00AAD01A201A3013808AF00390864
:10050800AE0008002000C300C401C5019F2A4508A9
:100518004307C20042088600870101084406353EA9
:10052800840080300318013E85000008C4000130B3
:10053800C2004208C50741084502031CA42AA52A8F
:100548008B2A44084C3A080083310A2382311D3033
:100558002000C1000330C2008331842382318B170D
:100568000B178131BC218231823164228231823180
:1005780010228231833130238231B52A80312628F6
:10058800220090018C018D018E010830210090001D
:10059800F6308C0080308D00FD308E0023008D01F8
:1005A80036308C00240090018D0121009513220023
:1005B8009D0108000B112000350895000130A407A3
:1005C8000030A53D003025020A3003192402031C1F
:1005D800EE2AEF2AF52A83315B2382312000A40119
:1005E800A501080021001508C03914389500063007
:1005F800200095000630B5000B118B168E30C10017
:100608000330C20083318423823108008231C4223E
:10061800833183316823833183318A238331833162
:100628007423833183314E2383318231F62283311F
:10063800080001302000A2070030A33D003023024B
:10064800C83003192202031C2A2B2B2B2F2BA201A3
:10065800A301AD01AD0A080020002D03031D352BB1
:10066800362B3E2BAD0122008D160D128D150D1166
:100678008D100D1008002000131226001108FB0031
:100688001208FC007C08F1007B08F000813135215C
:10069800833108001030200099009701960111104D
:1006A8001708A9001608A8000130980008002000C3
:1006B800260827040319612B622B672B27088A0059
:1006C80026080A008331080070302100990098013B
:1006D8002200960121001A1F722B732B6E2B080023
:1006E8000530260093009201910120001312210089
:1006F80013160800640080010131890B7F2B003438
:1007080020004208A7004108A60008001630210072
:0607180097000800080034
:020000040001F9
:04000E00E43FFF1FAD
:00000001FF
